{
  "address": "0x3624831f7b1A8C0AfD08FA011B88Fc7cF36E9434",
  "abi": [
    {
      "inputs": [
        {
          "internalType": "string",
          "name": "_name",
          "type": "string"
        },
        {
          "internalType": "string",
          "name": "_symbol",
          "type": "string"
        },
        {
          "internalType": "contract ISuperfluid",
          "name": "host",
          "type": "address"
        },
        {
          "internalType": "contract IConstantFlowAgreementV1",
          "name": "cfa",
          "type": "address"
        },
        {
          "internalType": "contract ISuperToken",
          "name": "acceptedToken",
          "type": "address"
        }
      ],
      "stateMutability": "nonpayable",
      "type": "constructor"
    },
    {
      "anonymous": false,
      "inputs": [
        {
          "indexed": true,
          "internalType": "address",
          "name": "owner",
          "type": "address"
        },
        {
          "indexed": true,
          "internalType": "address",
          "name": "approved",
          "type": "address"
        },
        {
          "indexed": true,
          "internalType": "uint256",
          "name": "tokenId",
          "type": "uint256"
        }
      ],
      "name": "Approval",
      "type": "event"
    },
    {
      "anonymous": false,
      "inputs": [
        {
          "indexed": true,
          "internalType": "address",
          "name": "owner",
          "type": "address"
        },
        {
          "indexed": true,
          "internalType": "address",
          "name": "operator",
          "type": "address"
        },
        {
          "indexed": false,
          "internalType": "bool",
          "name": "approved",
          "type": "bool"
        }
      ],
      "name": "ApprovalForAll",
      "type": "event"
    },
    {
      "anonymous": false,
      "inputs": [
        {
          "indexed": false,
          "internalType": "uint256",
          "name": "tokenId",
          "type": "uint256"
        },
        {
          "indexed": false,
          "internalType": "address",
          "name": "receiver",
          "type": "address"
        },
        {
          "indexed": false,
          "internalType": "int96",
          "name": "flowRate",
          "type": "int96"
        }
      ],
      "name": "NFTIssued",
      "type": "event"
    },
    {
      "anonymous": false,
      "inputs": [
        {
          "indexed": true,
          "internalType": "address",
          "name": "previousOwner",
          "type": "address"
        },
        {
          "indexed": true,
          "internalType": "address",
          "name": "newOwner",
          "type": "address"
        }
      ],
      "name": "OwnershipTransferred",
      "type": "event"
    },
    {
      "anonymous": false,
      "inputs": [
        {
          "indexed": true,
          "internalType": "address",
          "name": "from",
          "type": "address"
        },
        {
          "indexed": true,
          "internalType": "address",
          "name": "to",
          "type": "address"
        },
        {
          "indexed": true,
          "internalType": "uint256",
          "name": "tokenId",
          "type": "uint256"
        }
      ],
      "name": "Transfer",
      "type": "event"
    },
    {
      "anonymous": false,
      "inputs": [
        {
          "indexed": false,
          "internalType": "address",
          "name": "_from",
          "type": "address"
        },
        {
          "indexed": false,
          "internalType": "address",
          "name": "_destAddr",
          "type": "address"
        },
        {
          "indexed": false,
          "internalType": "uint256",
          "name": "_amount",
          "type": "uint256"
        }
      ],
      "name": "TransferSent",
      "type": "event"
    },
    {
      "inputs": [],
      "name": "_acceptedToken",
      "outputs": [
        {
          "internalType": "contract ISuperToken",
          "name": "",
          "type": "address"
        }
      ],
      "stateMutability": "view",
      "type": "function"
    },
    {
      "inputs": [
        {
          "internalType": "address",
          "name": "receiver",
          "type": "address"
        },
        {
          "internalType": "int96",
          "name": "flowRate",
          "type": "int96"
        }
      ],
      "name": "_issueNFT",
      "outputs": [],
      "stateMutability": "nonpayable",
      "type": "function"
    },
    {
      "inputs": [
        {
          "internalType": "address",
          "name": "to",
          "type": "address"
        },
        {
          "internalType": "uint256",
          "name": "tokenId",
          "type": "uint256"
        }
      ],
      "name": "approve",
      "outputs": [],
      "stateMutability": "nonpayable",
      "type": "function"
    },
    {
      "inputs": [
        {
          "internalType": "address",
          "name": "owner",
          "type": "address"
        }
      ],
      "name": "balanceOf",
      "outputs": [
        {
          "internalType": "uint256",
          "name": "",
          "type": "uint256"
        }
      ],
      "stateMutability": "view",
      "type": "function"
    },
    {
      "inputs": [],
      "name": "baseURI",
      "outputs": [
        {
          "internalType": "string",
          "name": "",
          "type": "string"
        }
      ],
      "stateMutability": "view",
      "type": "function"
    },
    {
      "inputs": [
        {
          "internalType": "uint256",
          "name": "tokenId",
          "type": "uint256"
        }
      ],
      "name": "burnNFT",
      "outputs": [],
      "stateMutability": "nonpayable",
      "type": "function"
    },
    {
      "inputs": [
        {
          "internalType": "int96",
          "name": "_flowRate",
          "type": "int96"
        }
      ],
      "name": "changeFlowRate",
      "outputs": [],
      "stateMutability": "nonpayable",
      "type": "function"
    },
    {
      "inputs": [
        {
          "internalType": "uint256",
          "name": "_newmaxSupplyAmount",
          "type": "uint256"
        }
      ],
      "name": "changeMaxSupply",
      "outputs": [],
      "stateMutability": "nonpayable",
      "type": "function"
    },
    {
      "inputs": [
        {
          "internalType": "address",
          "name": "acceptedToken",
          "type": "address"
        }
      ],
      "name": "changeSuperToken",
      "outputs": [],
      "stateMutability": "nonpayable",
      "type": "function"
    },
    {
      "inputs": [
        {
          "internalType": "uint256",
          "name": "",
          "type": "uint256"
        }
      ],
      "name": "flowRates",
      "outputs": [
        {
          "internalType": "int96",
          "name": "",
          "type": "int96"
        }
      ],
      "stateMutability": "view",
      "type": "function"
    },
    {
      "inputs": [
        {
          "internalType": "uint256",
          "name": "tokenId",
          "type": "uint256"
        }
      ],
      "name": "getApproved",
      "outputs": [
        {
          "internalType": "address",
          "name": "",
          "type": "address"
        }
      ],
      "stateMutability": "view",
      "type": "function"
    },
    {
      "inputs": [
        {
          "internalType": "address",
          "name": "owner",
          "type": "address"
        },
        {
          "internalType": "address",
          "name": "operator",
          "type": "address"
        }
      ],
      "name": "isApprovedForAll",
      "outputs": [
        {
          "internalType": "bool",
          "name": "",
          "type": "bool"
        }
      ],
      "stateMutability": "view",
      "type": "function"
    },
    {
      "inputs": [],
      "name": "maxSupply",
      "outputs": [
        {
          "internalType": "uint256",
          "name": "",
          "type": "uint256"
        }
      ],
      "stateMutability": "view",
      "type": "function"
    },
    {
      "inputs": [],
      "name": "name",
      "outputs": [
        {
          "internalType": "string",
          "name": "",
          "type": "string"
        }
      ],
      "stateMutability": "view",
      "type": "function"
    },
    {
      "inputs": [],
      "name": "nftBaseURI",
      "outputs": [
        {
          "internalType": "string",
          "name": "",
          "type": "string"
        }
      ],
      "stateMutability": "view",
      "type": "function"
    },
    {
      "inputs": [],
      "name": "owner",
      "outputs": [
        {
          "internalType": "address",
          "name": "",
          "type": "address"
        }
      ],
      "stateMutability": "view",
      "type": "function"
    },
    {
      "inputs": [
        {
          "internalType": "uint256",
          "name": "tokenId",
          "type": "uint256"
        }
      ],
      "name": "ownerOf",
      "outputs": [
        {
          "internalType": "address",
          "name": "",
          "type": "address"
        }
      ],
      "stateMutability": "view",
      "type": "function"
    },
    {
      "inputs": [
        {
          "internalType": "bool",
          "name": "_state",
          "type": "bool"
        }
      ],
      "name": "pause",
      "outputs": [],
      "stateMutability": "nonpayable",
      "type": "function"
    },
    {
      "inputs": [],
      "name": "paused",
      "outputs": [
        {
          "internalType": "bool",
          "name": "",
          "type": "bool"
        }
      ],
      "stateMutability": "view",
      "type": "function"
    },
    {
      "inputs": [],
      "name": "renounceOwnership",
      "outputs": [],
      "stateMutability": "nonpayable",
      "type": "function"
    },
    {
      "inputs": [
        {
          "internalType": "address",
          "name": "from",
          "type": "address"
        },
        {
          "internalType": "address",
          "name": "to",
          "type": "address"
        },
        {
          "internalType": "uint256",
          "name": "tokenId",
          "type": "uint256"
        }
      ],
      "name": "safeTransferFrom",
      "outputs": [],
      "stateMutability": "nonpayable",
      "type": "function"
    },
    {
      "inputs": [
        {
          "internalType": "address",
          "name": "from",
          "type": "address"
        },
        {
          "internalType": "address",
          "name": "to",
          "type": "address"
        },
        {
          "internalType": "uint256",
          "name": "tokenId",
          "type": "uint256"
        },
        {
          "internalType": "bytes",
          "name": "_data",
          "type": "bytes"
        }
      ],
      "name": "safeTransferFrom",
      "outputs": [],
      "stateMutability": "nonpayable",
      "type": "function"
    },
    {
      "inputs": [
        {
          "internalType": "address",
          "name": "operator",
          "type": "address"
        },
        {
          "internalType": "bool",
          "name": "approved",
          "type": "bool"
        }
      ],
      "name": "setApprovalForAll",
      "outputs": [],
      "stateMutability": "nonpayable",
      "type": "function"
    },
    {
      "inputs": [
        {
          "internalType": "string",
          "name": "_nftBaseURI",
          "type": "string"
        }
      ],
      "name": "setNFTBaseURI",
      "outputs": [],
      "stateMutability": "nonpayable",
      "type": "function"
    },
    {
      "inputs": [
        {
          "internalType": "bytes4",
          "name": "interfaceId",
          "type": "bytes4"
        }
      ],
      "name": "supportsInterface",
      "outputs": [
        {
          "internalType": "bool",
          "name": "",
          "type": "bool"
        }
      ],
      "stateMutability": "view",
      "type": "function"
    },
    {
      "inputs": [],
      "name": "symbol",
      "outputs": [
        {
          "internalType": "string",
          "name": "",
          "type": "string"
        }
      ],
      "stateMutability": "view",
      "type": "function"
    },
    {
      "inputs": [
        {
          "internalType": "uint256",
          "name": "index",
          "type": "uint256"
        }
      ],
      "name": "tokenByIndex",
      "outputs": [
        {
          "internalType": "uint256",
          "name": "",
          "type": "uint256"
        }
      ],
      "stateMutability": "view",
      "type": "function"
    },
    {
      "inputs": [],
      "name": "tokenCounter",
      "outputs": [
        {
          "internalType": "uint256",
          "name": "",
          "type": "uint256"
        }
      ],
      "stateMutability": "view",
      "type": "function"
    },
    {
      "inputs": [],
      "name": "tokenFlowRate",
      "outputs": [
        {
          "internalType": "int96",
          "name": "",
          "type": "int96"
        }
      ],
      "stateMutability": "view",
      "type": "function"
    },
    {
      "inputs": [
        {
          "internalType": "address",
          "name": "owner",
          "type": "address"
        },
        {
          "internalType": "uint256",
          "name": "index",
          "type": "uint256"
        }
      ],
      "name": "tokenOfOwnerByIndex",
      "outputs": [
        {
          "internalType": "uint256",
          "name": "",
          "type": "uint256"
        }
      ],
      "stateMutability": "view",
      "type": "function"
    },
    {
      "inputs": [
        {
          "internalType": "uint256",
          "name": "tokenId",
          "type": "uint256"
        }
      ],
      "name": "tokenURI",
      "outputs": [
        {
          "internalType": "string",
          "name": "",
          "type": "string"
        }
      ],
      "stateMutability": "view",
      "type": "function"
    },
    {
      "inputs": [],
      "name": "totalSupply",
      "outputs": [
        {
          "internalType": "uint256",
          "name": "",
          "type": "uint256"
        }
      ],
      "stateMutability": "view",
      "type": "function"
    },
    {
      "inputs": [
        {
          "internalType": "address",
          "name": "from",
          "type": "address"
        },
        {
          "internalType": "address",
          "name": "to",
          "type": "address"
        },
        {
          "internalType": "uint256",
          "name": "tokenId",
          "type": "uint256"
        }
      ],
      "name": "transferFrom",
      "outputs": [],
      "stateMutability": "nonpayable",
      "type": "function"
    },
    {
      "inputs": [
        {
          "internalType": "address",
          "name": "newOwner",
          "type": "address"
        }
      ],
      "name": "transferOwnership",
      "outputs": [],
      "stateMutability": "nonpayable",
      "type": "function"
    },
    {
      "inputs": [],
      "name": "withdraw",
      "outputs": [],
      "stateMutability": "payable",
      "type": "function"
    },
    {
      "inputs": [
        {
          "internalType": "contract IERC20",
          "name": "token",
          "type": "address"
        }
      ],
      "name": "withdrawToken",
      "outputs": [],
      "stateMutability": "nonpayable",
      "type": "function"
    }
  ],
  "transactionHash": "0x2fd56832805c27f4c212d137278c619056deb851b4fa63ddcf81c5bb3ffb4963",
  "args": [
    "BrightIDStream",
    "BID",
    "0xeD5B5b32110c3Ded02a07c8b8e97513FAfb883B6",
    "0xF4C5310E51F6079F601a5fb7120bC72a70b96e2A",
    "0x745861AeD1EEe363b4AaA5F1994Be40b1e05Ff90"
  ],
  "numDeployments": 2,
  "solcInputHash": "58a5d43f3d2d0c1b87a86bea4e0fa2eb",
  "bytecode": "0x600f80546001600160601b03191666015ee2a32055b8179055600a60105560e0604052603c6080818152906200376a60a039805162000047916012916020909101906200048a565b506013805460ff191690553480156200005f57600080fd5b50604051620037a6380380620037a6833981810160405260a08110156200008557600080fd5b8101908080516040519392919084640100000000821115620000a657600080fd5b908301906020820185811115620000bc57600080fd5b8251640100000000811182820188101715620000d757600080fd5b82525081516020918201929091019080838360005b8381101562000106578181015183820152602001620000ec565b50505050905090810190601f168015620001345780820380516001836020036101000a031916815260200191505b50604052602001805160405193929190846401000000008211156200015857600080fd5b9083019060208201858111156200016e57600080fd5b82516401000000008111828201881017156200018957600080fd5b82525081516020918201929091019080838360005b83811015620001b85781810151838201526020016200019e565b50505050905090810190601f168015620001e65780820380516001836020036101000a031916815260200191505b5060409081526020820151908201516060909201519093509091508484620002156301ffc9a760e01b620003e8565b81516200022a9060069060208501906200048a565b508051620002409060079060208401906200048a565b50620002536380ac58cd60e01b620003e8565b62000265635b5e139f60e01b620003e8565b6200027763780e9d6360e01b620003e8565b5060009050620002866200046d565b600a80546001600160a01b0319166001600160a01b038316908117909155604051919250906000907f8be0079c531659141344cd1fd0a4f28419497f9722a3daafe3b4186f6b6457e0908290a350600b80546001600160a01b038086166001600160a01b03199283161792839055600c8054868316908416179055600d8054858316931692909217909155166200031957fe5b600c546001600160a01b03166200032c57fe5b600d546001600160a01b03166200033f57fe5b60128054604080516020601f60026000196101006001881615020190951694909404938401819004810282018101909252828152620003dd9390929091830182828015620003d15780601f10620003a557610100808354040283529160200191620003d1565b820191906000526020600020905b815481529060010190602001808311620003b357829003601f168201915b50506200047192505050565b505050505062000526565b6001600160e01b0319808216141562000448576040805162461bcd60e51b815260206004820152601c60248201527f4552433136353a20696e76616c696420696e7465726661636520696400000000604482015290519081900360640190fd5b6001600160e01b0319166000908152602081905260409020805460ff19166001179055565b3390565b8051620004869060099060208401906200048a565b5050565b828054600181600116156101000203166002900490600052602060002090601f016020900481019282601f10620004cd57805160ff1916838001178555620004fd565b82800160010185558215620004fd579182015b82811115620004fd578251825591602001919060010190620004e0565b506200050b9291506200050f565b5090565b5b808211156200050b576000815560010162000510565b61323480620005366000396000f3fe60806040526004361061020f5760003560e01c8063663de5cb11610118578063a22cb465116100a0578063d5abeb011161006f578063d5abeb011461084c578063daa886b114610861578063db8116b714610914578063e985e9c514610929578063f2fde38b146109645761020f565b8063a22cb465146106ff578063b88d4fde1461073a578063c87b56dd1461080d578063d082e381146108375761020f565b806379bcb8df116100e757806379bcb8df1461064c578063894760691461068d5780638da5cb5b146106c0578063933de0ac146106d557806395d89b41146106ea5761020f565b8063663de5cb146105c25780636c0360eb146105ef57806370a0823114610604578063715018a6146106375761020f565b80632f745c591161019b57806342842e0e1161016a57806342842e0e146105015780634e5b3c7c146105445780634f6ccce7146105595780635c975abb146105835780636352211e146105985761020f565b80632f745c59146104635780633b82b1aa1461049c5780633ccfd60b146104cf578063404c7cdd146104d75761020f565b8063095ea7b3116101e2578063095ea7b31461035a57806310047c501461039357806318160ddd146103cf57806323b872dd146103f65780632890e0d7146104395761020f565b806301ffc9a71461021457806302329a291461025c57806306fdde031461028a578063081812fc14610314575b600080fd5b34801561022057600080fd5b506102486004803603602081101561023757600080fd5b50356001600160e01b031916610997565b604080519115158252519081900360200190f35b34801561026857600080fd5b506102886004803603602081101561027f57600080fd5b503515156109b6565b005b34801561029657600080fd5b5061029f610a2b565b6040805160208082528351818301528351919283929083019185019080838360005b838110156102d95781810151838201526020016102c1565b50505050905090810190601f1680156103065780820380516001836020036101000a031916815260200191505b509250505060405180910390f35b34801561032057600080fd5b5061033e6004803603602081101561033757600080fd5b5035610ac1565b604080516001600160a01b039092168252519081900360200190f35b34801561036657600080fd5b506102886004803603604081101561037d57600080fd5b506001600160a01b038135169060200135610b23565b34801561039f57600080fd5b50610288600480360360408110156103b657600080fd5b506001600160a01b038135169060200135600b0b610bfe565b3480156103db57600080fd5b506103e4610dfe565b60408051918252519081900360200190f35b34801561040257600080fd5b506102886004803603606081101561041957600080fd5b506001600160a01b03813581169160208101359091169060400135610e0f565b34801561044557600080fd5b506102886004803603602081101561045c57600080fd5b5035610e66565b34801561046f57600080fd5b506103e46004803603604081101561048657600080fd5b506001600160a01b038135169060200135610fa6565b3480156104a857600080fd5b50610288600480360360208110156104bf57600080fd5b50356001600160a01b0316610fd1565b610288611055565b3480156104e357600080fd5b50610288600480360360208110156104fa57600080fd5b503561110f565b34801561050d57600080fd5b506102886004803603606081101561052457600080fd5b506001600160a01b03813581169160208101359091169060400135611176565b34801561055057600080fd5b5061033e611191565b34801561056557600080fd5b506103e46004803603602081101561057c57600080fd5b50356111a0565b34801561058f57600080fd5b506102486111b6565b3480156105a457600080fd5b5061033e600480360360208110156105bb57600080fd5b50356111bf565b3480156105ce57600080fd5b50610288600480360360208110156105e557600080fd5b5035600b0b6111e7565b3480156105fb57600080fd5b5061029f611275565b34801561061057600080fd5b506103e46004803603602081101561062757600080fd5b50356001600160a01b03166112d6565b34801561064357600080fd5b5061028861133e565b34801561065857600080fd5b506106766004803603602081101561066f57600080fd5b50356113ea565b60408051600b9290920b8252519081900360200190f35b34801561069957600080fd5b50610288600480360360208110156106b057600080fd5b50356001600160a01b03166113ff565b3480156106cc57600080fd5b5061033e6115ab565b3480156106e157600080fd5b506106766115ba565b3480156106f657600080fd5b5061029f6115c3565b34801561070b57600080fd5b506102886004803603604081101561072257600080fd5b506001600160a01b0381351690602001351515611624565b34801561074657600080fd5b506102886004803603608081101561075d57600080fd5b6001600160a01b0382358116926020810135909116916040820135919081019060808101606082013564010000000081111561079857600080fd5b8201836020820111156107aa57600080fd5b803590602001918460018302840111640100000000831117156107cc57600080fd5b91908080601f016020809104026020016040519081016040528093929190818152602001838380828437600092019190915250929550611729945050505050565b34801561081957600080fd5b5061029f6004803603602081101561083057600080fd5b5035611781565b34801561084357600080fd5b506103e4611860565b34801561085857600080fd5b506103e4611866565b34801561086d57600080fd5b506102886004803603602081101561088457600080fd5b81019060208101813564010000000081111561089f57600080fd5b8201836020820111156108b157600080fd5b803590602001918460018302840111640100000000831117156108d357600080fd5b91908080601f01602080910402602001604051908101604052809392919081815260200183838082843760009201919091525092955061186c945050505050565b34801561092057600080fd5b5061029f6118e1565b34801561093557600080fd5b506102486004803603604081101561094c57600080fd5b506001600160a01b038135811691602001351661196f565b34801561097057600080fd5b506102886004803603602081101561098757600080fd5b50356001600160a01b031661199d565b6001600160e01b03191660009081526020819052604090205460ff1690565b6109be611aa0565b6001600160a01b03166109cf6115ab565b6001600160a01b031614610a18576040805162461bcd60e51b81526020600482018190526024820152600080516020613135833981519152604482015290519081900360640190fd5b6013805460ff1916911515919091179055565b60068054604080516020601f6002600019610100600188161502019095169490940493840181900481028201810190925282815260609390929091830182828015610ab75780601f10610a8c57610100808354040283529160200191610ab7565b820191906000526020600020905b815481529060010190602001808311610a9a57829003601f168201915b5050505050905090565b6000610acc82611aa4565b610b075760405162461bcd60e51b815260040180806020018281038252602c815260200180613109602c913960400191505060405180910390fd5b506000908152600460205260409020546001600160a01b031690565b6000610b2e826111bf565b9050806001600160a01b0316836001600160a01b03161415610b815760405162461bcd60e51b81526004018080602001828103825260218152602001806131ad6021913960400191505060405180910390fd5b806001600160a01b0316610b93611aa0565b6001600160a01b03161480610bb45750610bb481610baf611aa0565b61196f565b610bef5760405162461bcd60e51b815260040180806020018281038252603881526020018061303a6038913960400191505060405180910390fd5b610bf98383611ab1565b505050565b610c06611aa0565b6001600160a01b0316610c176115ab565b6001600160a01b031614610c60576040805162461bcd60e51b81526020600482018190526024820152600080516020613135833981519152604482015290519081900360640190fd5b60135460ff1615610cb1576040805162461bcd60e51b81526020600482015260166024820152751d1a194818dbdb9d1c9858dd081a5cc81c185d5cd95960521b604482015290519081900360640190fd5b6001600160a01b038216301415610d08576040805162461bcd60e51b8152602060048201526016602482015275497373756520746f2061206e6577206164647265737360501b604482015290519081900360640190fd5b600081600b0b13610d60576040805162461bcd60e51b815260206004820152601a60248201527f666c6f7752617465206d75737420626520706f73697469766521000000000000604482015290519081900360640190fd5b60118054600101808255600f546000918252600e6020908152604080842080546001600160601b0319166bffffffffffffffffffffffff600b95860b860b161790559354808452928490205484519384523391840191909152810b900b8183015290517f6e89a354929848553af9a2898855fe0486bb36807f1512041a8fcf8e19f4a584916060908290030190a1610dfa82601154611b1f565b5050565b6000610e0a6002611b39565b905090565b610e20610e1a611aa0565b82611b44565b610e5b5760405162461bcd60e51b81526004018080602001828103825260318152602001806131ce6031913960400191505060405180910390fd5b610bf9838383611be8565b610e6e611aa0565b6001600160a01b0316610e7f6115ab565b6001600160a01b031614610ec8576040805162461bcd60e51b81526020600482018190526024820152600080516020613135833981519152604482015290519081900360640190fd5b80610ed281611aa4565b610f0d5760405162461bcd60e51b8152600401808060200182810382526025815260200180612f476025913960400191505060405180910390fd5b60135460ff1615610f5e576040805162461bcd60e51b81526020600482015260166024820152751d1a194818dbdb9d1c9858dd081a5cc81c185d5cd95960521b604482015290519081900360640190fd5b6000610f69836111bf565b6000848152600e6020526040902080546001600160601b03198116909155909150600b0b610f9684611d34565b610fa08282611e01565b50505050565b6001600160a01b0382166000908152600160205260408120610fc89083611ee2565b90505b92915050565b610fd9611aa0565b6001600160a01b0316610fea6115ab565b6001600160a01b031614611033576040805162461bcd60e51b81526020600482018190526024820152600080516020613135833981519152604482015290519081900360640190fd5b600d80546001600160a01b0319166001600160a01b0392909216919091179055565b61105d611aa0565b6001600160a01b031661106e6115ab565b6001600160a01b0316146110b7576040805162461bcd60e51b81526020600482018190526024820152600080516020613135833981519152604482015290519081900360640190fd5b604051600090339047908381818185875af1925050503d80600081146110f9576040519150601f19603f3d011682016040523d82523d6000602084013e6110fe565b606091505b505090508061110c57600080fd5b50565b611117611aa0565b6001600160a01b03166111286115ab565b6001600160a01b031614611171576040805162461bcd60e51b81526020600482018190526024820152600080516020613135833981519152604482015290519081900360640190fd5b601055565b610bf983838360405180602001604052806000815250611729565b600d546001600160a01b031681565b6000806111ae600284611eee565b509392505050565b60135460ff1681565b6000610fcb8260405180606001604052806029815260200161309c6029913960029190611f0a565b6111ef611aa0565b6001600160a01b03166112006115ab565b6001600160a01b031614611249576040805162461bcd60e51b81526020600482018190526024820152600080516020613135833981519152604482015290519081900360640190fd5b600f8054600b9290920b6bffffffffffffffffffffffff166001600160601b0319909216919091179055565b60098054604080516020601f6002600019610100600188161502019095169490940493840181900481028201810190925282815260609390929091830182828015610ab75780601f10610a8c57610100808354040283529160200191610ab7565b60006001600160a01b03821661131d5760405162461bcd60e51b815260040180806020018281038252602a815260200180613072602a913960400191505060405180910390fd5b6001600160a01b0382166000908152600160205260409020610fcb90611b39565b611346611aa0565b6001600160a01b03166113576115ab565b6001600160a01b0316146113a0576040805162461bcd60e51b81526020600482018190526024820152600080516020613135833981519152604482015290519081900360640190fd5b600a546040516000916001600160a01b0316907f8be0079c531659141344cd1fd0a4f28419497f9722a3daafe3b4186f6b6457e0908390a3600a80546001600160a01b0319169055565b600e60205260009081526040902054600b0b81565b611407611aa0565b6001600160a01b03166114186115ab565b6001600160a01b031614611461576040805162461bcd60e51b81526020600482018190526024820152600080516020613135833981519152604482015290519081900360640190fd5b806001600160a01b031663a9059cbb33836001600160a01b03166370a08231306040518263ffffffff1660e01b815260040180826001600160a01b0316815260200191505060206040518083038186803b1580156114be57600080fd5b505afa1580156114d2573d6000803e3d6000fd5b505050506040513d60208110156114e857600080fd5b5051604080516001600160e01b031960e086901b1681526001600160a01b03909316600484015260248301919091525160448083019260209291908290030181600087803b15801561153957600080fd5b505af115801561154d573d6000803e3d6000fd5b505050506040513d602081101561156357600080fd5b505161110c576040805162461bcd60e51b81526020600482015260126024820152712ab730b13632903a37903a3930b739b332b960711b604482015290519081900360640190fd5b600a546001600160a01b031690565b600f54600b0b81565b60078054604080516020601f6002600019610100600188161502019095169490940493840181900481028201810190925282815260609390929091830182828015610ab75780601f10610a8c57610100808354040283529160200191610ab7565b61162c611aa0565b6001600160a01b0316826001600160a01b03161415611692576040805162461bcd60e51b815260206004820152601960248201527f4552433732313a20617070726f766520746f2063616c6c657200000000000000604482015290519081900360640190fd5b806005600061169f611aa0565b6001600160a01b03908116825260208083019390935260409182016000908120918716808252919093529120805460ff1916921515929092179091556116e3611aa0565b6001600160a01b03167f17307eab39ab6107e8899845ad3d59bd9653f200f220920489ca2b5937696c318360405180821515815260200191505060405180910390a35050565b61173a611734611aa0565b83611b44565b6117755760405162461bcd60e51b81526004018080602001828103825260318152602001806131ce6031913960400191505060405180910390fd5b610fa084848484611f17565b606061178c82611aa4565b6117c75760405162461bcd60e51b815260040180806020018281038252602f81526020018061317e602f913960400191505060405180910390fd5b60606117d1611275565b905060008151116117f15760405180602001604052806000815250611859565b806040516020018082805190602001908083835b602083106118245780518252601f199092019160209182019101611805565b6001836020036101000a0380198251168184511680821785525050505050509050019150506040516020818303038152906040525b9392505050565b60115481565b60105481565b611874611aa0565b6001600160a01b03166118856115ab565b6001600160a01b0316146118ce576040805162461bcd60e51b81526020600482018190526024820152600080516020613135833981519152604482015290519081900360640190fd5b8051610dfa906012906020840190612e51565b6012805460408051602060026001851615610100026000190190941693909304601f810184900484028201840190925281815292918301828280156119675780601f1061193c57610100808354040283529160200191611967565b820191906000526020600020905b81548152906001019060200180831161194a57829003601f168201915b505050505081565b6001600160a01b03918216600090815260056020908152604080832093909416825291909152205460ff1690565b6119a5611aa0565b6001600160a01b03166119b66115ab565b6001600160a01b0316146119ff576040805162461bcd60e51b81526020600482018190526024820152600080516020613135833981519152604482015290519081900360640190fd5b6001600160a01b038116611a445760405162461bcd60e51b8152600401808060200182810382526026815260200180612f9e6026913960400191505060405180910390fd5b600a546040516001600160a01b038084169216907f8be0079c531659141344cd1fd0a4f28419497f9722a3daafe3b4186f6b6457e090600090a3600a80546001600160a01b0319166001600160a01b0392909216919091179055565b3390565b6000610fcb600283611f69565b600081815260046020526040902080546001600160a01b0319166001600160a01b0384169081179091558190611ae6826111bf565b6001600160a01b03167f8c5be1e5ebec7d5bd14f71427d1e84f3dd0314c0f7b2291e5b200ac8c7c3b92560405160405180910390a45050565b610dfa828260405180602001604052806000815250611f75565b6000610fcb82611fc7565b6000611b4f82611aa4565b611b8a5760405162461bcd60e51b815260040180806020018281038252602c81526020018061300e602c913960400191505060405180910390fd5b6000611b95836111bf565b9050806001600160a01b0316846001600160a01b03161480611bd05750836001600160a01b0316611bc584610ac1565b6001600160a01b0316145b80611be05750611be0818561196f565b949350505050565b826001600160a01b0316611bfb826111bf565b6001600160a01b031614611c405760405162461bcd60e51b81526004018080602001828103825260298152602001806131556029913960400191505060405180910390fd5b6001600160a01b038216611c855760405162461bcd60e51b8152600401808060200182810382526024815260200180612fc46024913960400191505060405180910390fd5b611c90838383611fcb565b611c9b600082611ab1565b6001600160a01b0383166000908152600160205260409020611cbd90826120cd565b506001600160a01b0382166000908152600160205260409020611ce090826120d9565b50611ced600282846120e5565b5080826001600160a01b0316846001600160a01b03167fddf252ad1be2c89b69c2b068fc378daa952ba7f163c4a11628f55a4df523b3ef60405160405180910390a4505050565b6000611d3f826111bf565b9050611d4d81600084611fcb565b611d58600083611ab1565b6000828152600860205260409020546002600019610100600184161502019091160415611d96576000828152600860205260408120611d9691612ecf565b6001600160a01b0381166000908152600160205260409020611db890836120cd565b50611dc46002836120fb565b5060405182906000906001600160a01b038416907fddf252ad1be2c89b69c2b068fc378daa952ba7f163c4a11628f55a4df523b3ef908390a45050565b6001600160a01b038216301415611e1757610dfa565b600c54600d5460408051631cd43d1160e31b81526001600160a01b03928316600482015230602482015285831660448201529051600093929092169163e6a1e88891606480820192608092909190829003018186803b158015611e7957600080fd5b505afa158015611e8d573d6000803e3d6000fd5b505050506040513d6080811015611ea357600080fd5b50602001519050600b81810b9083900b1415611ec857611ec33084612107565b610bf9565b81600b0b81600b0b1315610bf957610bf9838383036123b4565b6000610fc8838361249c565b6000808080611efd8686612500565b9097909650945050505050565b6000611be084848461257b565b611f22848484611be8565b611f2e84848484612645565b610fa05760405162461bcd60e51b8152600401808060200182810382526032815260200180612f6c6032913960400191505060405180910390fd5b6000610fc883836127ad565b611f7f83836127c5565b611f8c6000848484612645565b610bf95760405162461bcd60e51b8152600401808060200182810382526032815260200180612f6c6032913960400191505060405180910390fd5b5490565b600b5460408051631e51d6a760e11b81526001600160a01b03858116600483015291519190921691633ca3ad4e916024808301926020929190829003018186803b15801561201857600080fd5b505afa15801561202c573d6000803e3d6000fd5b505050506040513d602081101561204257600080fd5b5051158061205857506001600160a01b03821630145b6120935760405162461bcd60e51b81526004018080602001828103825260228152602001806130c56022913960400191505060405180910390fd5b6000818152600e60205260409020546120b0908490600b0b611e01565b6000818152600e6020526040902054610bf9908390600b0b6128f3565b6000610fc883836129a5565b6000610fc88383612a6b565b6000611be084846001600160a01b038516612ab5565b6000610fc88383612b4c565b600b54600c54600d5460408051600080825260208201928390526001600160a01b039384166044830181815289861660648501528886166084850152608060a48501908152845160c48601819052988716986339255d5b989790971696635a5999e360e11b9693958c958c959194939260e4860192918190849084905b8381101561219c578181015183820152602001612184565b50505050905090810190601f1680156121c95780820380516001836020036101000a031916815260200191505b5060408051601f198184030181529181526020820180516001600160e01b03166001600160e01b03199a8b16178152905160e08c901b90991689526001600160a01b038a1660048a01908152606060248b01908152835160648c01528351939a919950975060448101965060840194509250905080838360005b8381101561225b578181015183820152602001612243565b50505050905090810190601f1680156122885780820380516001836020036101000a031916815260200191505b508381038252600281526020018061060f60f31b815250602001945050505050600060405180830381600087803b1580156122c257600080fd5b505af11580156122d6573d6000803e3d6000fd5b505050506040513d6000823e601f3d908101601f1916820160405260208110156122ff57600080fd5b810190808051604051939291908464010000000082111561231f57600080fd5b90830190602082018581111561233457600080fd5b825164010000000081118282018810171561234e57600080fd5b82525081516020918201929091019080838360005b8381101561237b578181015183820152602001612363565b50505050905090810190601f1680156123a85780820380516001836020036101000a031916815260200191505b50604052505050505050565b6001600160a01b0382163014806123d257506001600160a01b038216155b156123dc57610dfa565b600b54600c54600d546001600160a01b03928316926339255d5b928116916328104d3160e11b911686866000805b506040519080825280601f01601f191660200182016040528015612435576020820181803683370190505b5060405160240180856001600160a01b03168152602001846001600160a01b0316815260200183600b0b815260200180602001828103825283818151815260200191508051906020019080838360008381101561219c578181015183820152602001612184565b815460009082106124de5760405162461bcd60e51b8152600401808060200182810382526022815260200180612f256022913960400191505060405180910390fd5b8260000182815481106124ed57fe5b9060005260206000200154905092915050565b8154600090819083106125445760405162461bcd60e51b81526004018080602001828103825260228152602001806130e76022913960400191505060405180910390fd5b600084600001848154811061255557fe5b906000526020600020906002020190508060000154816001015492509250509250929050565b600082815260018401602052604081205482816126165760405162461bcd60e51b81526004018080602001828103825283818151815260200191508051906020019080838360005b838110156125db5781810151838201526020016125c3565b50505050905090810190601f1680156126085780820380516001836020036101000a031916815260200191505b509250505060405180910390fd5b5084600001600182038154811061262957fe5b9060005260206000209060020201600101549150509392505050565b6000612659846001600160a01b0316612c20565b61266557506001611be0565b6060612773630a85bd0160e11b61267a611aa0565b88878760405160240180856001600160a01b03168152602001846001600160a01b0316815260200183815260200180602001828103825283818151815260200191508051906020019080838360005b838110156126e15781810151838201526020016126c9565b50505050905090810190601f16801561270e5780820380516001836020036101000a031916815260200191505b5095505050505050604051602081830303815290604052906001600160e01b0319166020820180516001600160e01b038381831617835250505050604051806060016040528060328152602001612f6c603291396001600160a01b0388169190612c26565b9050600081806020019051602081101561278c57600080fd5b50516001600160e01b031916630a85bd0160e11b1492505050949350505050565b60009081526001919091016020526040902054151590565b6001600160a01b038216612820576040805162461bcd60e51b815260206004820181905260248201527f4552433732313a206d696e7420746f20746865207a65726f2061646472657373604482015290519081900360640190fd5b61282981611aa4565b1561287b576040805162461bcd60e51b815260206004820152601c60248201527f4552433732313a20746f6b656e20616c7265616479206d696e74656400000000604482015290519081900360640190fd5b61288760008383611fcb565b6001600160a01b03821660009081526001602052604090206128a990826120d9565b506128b6600282846120e5565b5060405181906001600160a01b038416906000907fddf252ad1be2c89b69c2b068fc378daa952ba7f163c4a11628f55a4df523b3ef908290a45050565b600c54600d5460408051631cd43d1160e31b81526001600160a01b03928316600482015230602482015285831660448201529051600093929092169163e6a1e88891606480820192608092909190829003018186803b15801561295557600080fd5b505afa158015612969573d6000803e3d6000fd5b505050506040513d608081101561297f57600080fd5b50602001519050600b81900b61299957611ec38383612c35565b610bf9838383016123b4565b60008181526001830160205260408120548015612a6157835460001980830191908101906000908790839081106129d857fe5b90600052602060002001549050808760000184815481106129f557fe5b600091825260208083209091019290925582815260018981019092526040902090840190558654879080612a2557fe5b60019003818190600052602060002001600090559055866001016000878152602001908152602001600020600090556001945050505050610fcb565b6000915050610fcb565b6000612a7783836127ad565b612aad57508154600181810184556000848152602080822090930184905584548482528286019093526040902091909155610fcb565b506000610fcb565b600082815260018401602052604081205480612b1a575050604080518082018252838152602080820184815286546001818101895560008981528481209551600290930290950191825591519082015586548684528188019092529290912055611859565b82856000016001830381548110612b2d57fe5b9060005260206000209060020201600101819055506000915050611859565b60008181526001830160205260408120548015612a615783546000198083019190810190600090879083908110612b7f57fe5b9060005260206000209060020201905080876000018481548110612b9f57fe5b600091825260208083208454600290930201918255600193840154918401919091558354825289830190526040902090840190558654879080612bde57fe5b6000828152602080822060026000199094019384020182815560019081018390559290935588815289820190925260408220919091559450610fcb9350505050565b3b151590565b6060611be08484600085612c8f565b6001600160a01b038216301480612c5357506001600160a01b038216155b15612c5d57610dfa565b600b54600c54600d546001600160a01b03928316926339255d5b9281169163317e182f60e11b9116868660008061240a565b606082471015612cd05760405162461bcd60e51b8152600401808060200182810382526026815260200180612fe86026913960400191505060405180910390fd5b612cd985612c20565b612d2a576040805162461bcd60e51b815260206004820152601d60248201527f416464726573733a2063616c6c20746f206e6f6e2d636f6e7472616374000000604482015290519081900360640190fd5b60006060866001600160a01b031685876040518082805190602001908083835b60208310612d695780518252601f199092019160209182019101612d4a565b6001836020036101000a03801982511681845116808217855250505050505090500191505060006040518083038185875af1925050503d8060008114612dcb576040519150601f19603f3d011682016040523d82523d6000602084013e612dd0565b606091505b5091509150612de0828286612deb565b979650505050505050565b60608315612dfa575081611859565b825115612e0a5782518084602001fd5b60405162461bcd60e51b81526020600482018181528451602484015284518593919283926044019190850190808383600083156125db5781810151838201526020016125c3565b828054600181600116156101000203166002900490600052602060002090601f016020900481019282601f10612e9257805160ff1916838001178555612ebf565b82800160010185558215612ebf579182015b82811115612ebf578251825591602001919060010190612ea4565b50612ecb929150612f0f565b5090565b50805460018160011615610100020316600290046000825580601f10612ef5575061110c565b601f01602090049060005260206000209081019061110c91905b5b80821115612ecb5760008155600101612f1056fe456e756d657261626c655365743a20696e646578206f7574206f6620626f756e6473746f6b656e20646f65736e2774206578697374206f7220686173206265656e206275726e744552433732313a207472616e7366657220746f206e6f6e20455243373231526563656976657220696d706c656d656e7465724f776e61626c653a206e6577206f776e657220697320746865207a65726f20616464726573734552433732313a207472616e7366657220746f20746865207a65726f2061646472657373416464726573733a20696e73756666696369656e742062616c616e636520666f722063616c6c4552433732313a206f70657261746f7220717565727920666f72206e6f6e6578697374656e7420746f6b656e4552433732313a20617070726f76652063616c6c6572206973206e6f74206f776e6572206e6f7220617070726f76656420666f7220616c6c4552433732313a2062616c616e636520717565727920666f7220746865207a65726f20616464726573734552433732313a206f776e657220717565727920666f72206e6f6e6578697374656e7420746f6b656e4e65772072656365697665722063616e206e6f742062652061207375706572417070456e756d657261626c654d61703a20696e646578206f7574206f6620626f756e64734552433732313a20617070726f76656420717565727920666f72206e6f6e6578697374656e7420746f6b656e4f776e61626c653a2063616c6c6572206973206e6f7420746865206f776e65724552433732313a207472616e73666572206f6620746f6b656e2074686174206973206e6f74206f776e4552433732314d657461646174613a2055524920717565727920666f72206e6f6e6578697374656e7420746f6b656e4552433732313a20617070726f76616c20746f2063757272656e74206f776e65724552433732313a207472616e736665722063616c6c6572206973206e6f74206f776e6572206e6f7220617070726f766564a264697066735822122080c9a81326f70bb310dd69d954026853d83a0930553782e501883858a3d63cb764736f6c63430007000033697066733a2f2f516d5761573766414563526a7672323563767346725562575a47446e713670566d6e44474d7338757556396959572f312e6a736f6e",
  "devdoc": {
    "kind": "dev",
    "methods": {
      "approve(address,uint256)": {
        "details": "See {IERC721-approve}."
      },
      "balanceOf(address)": {
        "details": "See {IERC721-balanceOf}."
      },
      "baseURI()": {
        "details": "Returns the base URI set via {_setBaseURI}. This will be automatically added as a prefix in {tokenURI} to each token's URI, or to the token ID if no specific URI is set for that token ID."
      },
      "getApproved(uint256)": {
        "details": "See {IERC721-getApproved}."
      },
      "isApprovedForAll(address,address)": {
        "details": "See {IERC721-isApprovedForAll}."
      },
      "name()": {
        "details": "See {IERC721Metadata-name}."
      },
      "owner()": {
        "details": "Returns the address of the current owner."
      },
      "ownerOf(uint256)": {
        "details": "See {IERC721-ownerOf}."
      },
      "renounceOwnership()": {
        "details": "Leaves the contract without owner. It will not be possible to call `onlyOwner` functions anymore. Can only be called by the current owner. NOTE: Renouncing ownership will leave the contract without an owner, thereby removing any functionality that is only available to the owner."
      },
      "safeTransferFrom(address,address,uint256)": {
        "details": "See {IERC721-safeTransferFrom}."
      },
      "safeTransferFrom(address,address,uint256,bytes)": {
        "details": "See {IERC721-safeTransferFrom}."
      },
      "setApprovalForAll(address,bool)": {
        "details": "See {IERC721-setApprovalForAll}."
      },
      "supportsInterface(bytes4)": {
        "details": "See {IERC165-supportsInterface}. Time complexity O(1), guaranteed to always use less than 30 000 gas."
      },
      "symbol()": {
        "details": "See {IERC721Metadata-symbol}."
      },
      "tokenByIndex(uint256)": {
        "details": "See {IERC721Enumerable-tokenByIndex}."
      },
      "tokenOfOwnerByIndex(address,uint256)": {
        "details": "See {IERC721Enumerable-tokenOfOwnerByIndex}."
      },
      "tokenURI(uint256)": {
        "details": "See {IERC721Metadata-tokenURI}."
      },
      "totalSupply()": {
        "details": "See {IERC721Enumerable-totalSupply}."
      },
      "transferFrom(address,address,uint256)": {
        "details": "See {IERC721-transferFrom}."
      },
      "transferOwnership(address)": {
        "details": "Transfers ownership of the contract to a new account (`newOwner`). Can only be called by the current owner."
      }
    },
    "version": 1
  },
  "userdoc": {
    "kind": "user",
    "methods": {},
    "version": 1
  },
  "storageLayout": {
    "storage": [
      {
        "astId": 123,
        "contract": "contracts/BrightIDStream.sol:BrightIDStream",
        "label": "_supportedInterfaces",
        "offset": 0,
        "slot": "0",
        "type": "t_mapping(t_bytes4,t_bool)"
      },
      {
        "astId": 870,
        "contract": "contracts/BrightIDStream.sol:BrightIDStream",
        "label": "_holderTokens",
        "offset": 0,
        "slot": "1",
        "type": "t_mapping(t_address,t_struct(UintSet)3395_storage)"
      },
      {
        "astId": 872,
        "contract": "contracts/BrightIDStream.sol:BrightIDStream",
        "label": "_tokenOwners",
        "offset": 0,
        "slot": "2",
        "type": "t_struct(UintToAddressMap)2772_storage"
      },
      {
        "astId": 876,
        "contract": "contracts/BrightIDStream.sol:BrightIDStream",
        "label": "_tokenApprovals",
        "offset": 0,
        "slot": "4",
        "type": "t_mapping(t_uint256,t_address)"
      },
      {
        "astId": 882,
        "contract": "contracts/BrightIDStream.sol:BrightIDStream",
        "label": "_operatorApprovals",
        "offset": 0,
        "slot": "5",
        "type": "t_mapping(t_address,t_mapping(t_address,t_bool))"
      },
      {
        "astId": 884,
        "contract": "contracts/BrightIDStream.sol:BrightIDStream",
        "label": "_name",
        "offset": 0,
        "slot": "6",
        "type": "t_string_storage"
      },
      {
        "astId": 886,
        "contract": "contracts/BrightIDStream.sol:BrightIDStream",
        "label": "_symbol",
        "offset": 0,
        "slot": "7",
        "type": "t_string_storage"
      },
      {
        "astId": 890,
        "contract": "contracts/BrightIDStream.sol:BrightIDStream",
        "label": "_tokenURIs",
        "offset": 0,
        "slot": "8",
        "type": "t_mapping(t_uint256,t_string_storage)"
      },
      {
        "astId": 892,
        "contract": "contracts/BrightIDStream.sol:BrightIDStream",
        "label": "_baseURI",
        "offset": 0,
        "slot": "9",
        "type": "t_string_storage"
      },
      {
        "astId": 7,
        "contract": "contracts/BrightIDStream.sol:BrightIDStream",
        "label": "_owner",
        "offset": 0,
        "slot": "10",
        "type": "t_address"
      },
      {
        "astId": 5576,
        "contract": "contracts/BrightIDStream.sol:BrightIDStream",
        "label": "_host",
        "offset": 0,
        "slot": "11",
        "type": "t_contract(ISuperfluid)5142"
      },
      {
        "astId": 5578,
        "contract": "contracts/BrightIDStream.sol:BrightIDStream",
        "label": "_cfa",
        "offset": 0,
        "slot": "12",
        "type": "t_contract(IConstantFlowAgreementV1)3762"
      },
      {
        "astId": 5580,
        "contract": "contracts/BrightIDStream.sol:BrightIDStream",
        "label": "_acceptedToken",
        "offset": 0,
        "slot": "13",
        "type": "t_contract(ISuperToken)4646"
      },
      {
        "astId": 5584,
        "contract": "contracts/BrightIDStream.sol:BrightIDStream",
        "label": "flowRates",
        "offset": 0,
        "slot": "14",
        "type": "t_mapping(t_uint256,t_int96)"
      },
      {
        "astId": 5587,
        "contract": "contracts/BrightIDStream.sol:BrightIDStream",
        "label": "tokenFlowRate",
        "offset": 0,
        "slot": "15",
        "type": "t_int96"
      },
      {
        "astId": 5590,
        "contract": "contracts/BrightIDStream.sol:BrightIDStream",
        "label": "maxSupply",
        "offset": 0,
        "slot": "16",
        "type": "t_uint256"
      },
      {
        "astId": 5592,
        "contract": "contracts/BrightIDStream.sol:BrightIDStream",
        "label": "tokenCounter",
        "offset": 0,
        "slot": "17",
        "type": "t_uint256"
      },
      {
        "astId": 5595,
        "contract": "contracts/BrightIDStream.sol:BrightIDStream",
        "label": "nftBaseURI",
        "offset": 0,
        "slot": "18",
        "type": "t_string_storage"
      },
      {
        "astId": 5598,
        "contract": "contracts/BrightIDStream.sol:BrightIDStream",
        "label": "paused",
        "offset": 0,
        "slot": "19",
        "type": "t_bool"
      }
    ],
    "types": {
      "t_address": {
        "encoding": "inplace",
        "label": "address",
        "numberOfBytes": "20"
      },
      "t_array(t_bytes32)dyn_storage": {
        "base": "t_bytes32",
        "encoding": "dynamic_array",
        "label": "bytes32[]",
        "numberOfBytes": "32"
      },
      "t_array(t_struct(MapEntry)2446_storage)dyn_storage": {
        "base": "t_struct(MapEntry)2446_storage",
        "encoding": "dynamic_array",
        "label": "struct EnumerableMap.MapEntry[]",
        "numberOfBytes": "32"
      },
      "t_bool": {
        "encoding": "inplace",
        "label": "bool",
        "numberOfBytes": "1"
      },
      "t_bytes32": {
        "encoding": "inplace",
        "label": "bytes32",
        "numberOfBytes": "32"
      },
      "t_bytes4": {
        "encoding": "inplace",
        "label": "bytes4",
        "numberOfBytes": "4"
      },
      "t_contract(IConstantFlowAgreementV1)3762": {
        "encoding": "inplace",
        "label": "contract IConstantFlowAgreementV1",
        "numberOfBytes": "20"
      },
      "t_contract(ISuperToken)4646": {
        "encoding": "inplace",
        "label": "contract ISuperToken",
        "numberOfBytes": "20"
      },
      "t_contract(ISuperfluid)5142": {
        "encoding": "inplace",
        "label": "contract ISuperfluid",
        "numberOfBytes": "20"
      },
      "t_int96": {
        "encoding": "inplace",
        "label": "int96",
        "numberOfBytes": "12"
      },
      "t_mapping(t_address,t_bool)": {
        "encoding": "mapping",
        "key": "t_address",
        "label": "mapping(address => bool)",
        "numberOfBytes": "32",
        "value": "t_bool"
      },
      "t_mapping(t_address,t_mapping(t_address,t_bool))": {
        "encoding": "mapping",
        "key": "t_address",
        "label": "mapping(address => mapping(address => bool))",
        "numberOfBytes": "32",
        "value": "t_mapping(t_address,t_bool)"
      },
      "t_mapping(t_address,t_struct(UintSet)3395_storage)": {
        "encoding": "mapping",
        "key": "t_address",
        "label": "mapping(address => struct EnumerableSet.UintSet)",
        "numberOfBytes": "32",
        "value": "t_struct(UintSet)3395_storage"
      },
      "t_mapping(t_bytes32,t_uint256)": {
        "encoding": "mapping",
        "key": "t_bytes32",
        "label": "mapping(bytes32 => uint256)",
        "numberOfBytes": "32",
        "value": "t_uint256"
      },
      "t_mapping(t_bytes4,t_bool)": {
        "encoding": "mapping",
        "key": "t_bytes4",
        "label": "mapping(bytes4 => bool)",
        "numberOfBytes": "32",
        "value": "t_bool"
      },
      "t_mapping(t_uint256,t_address)": {
        "encoding": "mapping",
        "key": "t_uint256",
        "label": "mapping(uint256 => address)",
        "numberOfBytes": "32",
        "value": "t_address"
      },
      "t_mapping(t_uint256,t_int96)": {
        "encoding": "mapping",
        "key": "t_uint256",
        "label": "mapping(uint256 => int96)",
        "numberOfBytes": "32",
        "value": "t_int96"
      },
      "t_mapping(t_uint256,t_string_storage)": {
        "encoding": "mapping",
        "key": "t_uint256",
        "label": "mapping(uint256 => string)",
        "numberOfBytes": "32",
        "value": "t_string_storage"
      },
      "t_string_storage": {
        "encoding": "bytes",
        "label": "string",
        "numberOfBytes": "32"
      },
      "t_struct(Map)2454_storage": {
        "encoding": "inplace",
        "label": "struct EnumerableMap.Map",
        "members": [
          {
            "astId": 2449,
            "contract": "contracts/BrightIDStream.sol:BrightIDStream",
            "label": "_entries",
            "offset": 0,
            "slot": "0",
            "type": "t_array(t_struct(MapEntry)2446_storage)dyn_storage"
          },
          {
            "astId": 2453,
            "contract": "contracts/BrightIDStream.sol:BrightIDStream",
            "label": "_indexes",
            "offset": 0,
            "slot": "1",
            "type": "t_mapping(t_bytes32,t_uint256)"
          }
        ],
        "numberOfBytes": "64"
      },
      "t_struct(MapEntry)2446_storage": {
        "encoding": "inplace",
        "label": "struct EnumerableMap.MapEntry",
        "members": [
          {
            "astId": 2443,
            "contract": "contracts/BrightIDStream.sol:BrightIDStream",
            "label": "_key",
            "offset": 0,
            "slot": "0",
            "type": "t_bytes32"
          },
          {
            "astId": 2445,
            "contract": "contracts/BrightIDStream.sol:BrightIDStream",
            "label": "_value",
            "offset": 0,
            "slot": "1",
            "type": "t_bytes32"
          }
        ],
        "numberOfBytes": "64"
      },
      "t_struct(Set)3009_storage": {
        "encoding": "inplace",
        "label": "struct EnumerableSet.Set",
        "members": [
          {
            "astId": 3004,
            "contract": "contracts/BrightIDStream.sol:BrightIDStream",
            "label": "_values",
            "offset": 0,
            "slot": "0",
            "type": "t_array(t_bytes32)dyn_storage"
          },
          {
            "astId": 3008,
            "contract": "contracts/BrightIDStream.sol:BrightIDStream",
            "label": "_indexes",
            "offset": 0,
            "slot": "1",
            "type": "t_mapping(t_bytes32,t_uint256)"
          }
        ],
        "numberOfBytes": "64"
      },
      "t_struct(UintSet)3395_storage": {
        "encoding": "inplace",
        "label": "struct EnumerableSet.UintSet",
        "members": [
          {
            "astId": 3394,
            "contract": "contracts/BrightIDStream.sol:BrightIDStream",
            "label": "_inner",
            "offset": 0,
            "slot": "0",
            "type": "t_struct(Set)3009_storage"
          }
        ],
        "numberOfBytes": "64"
      },
      "t_struct(UintToAddressMap)2772_storage": {
        "encoding": "inplace",
        "label": "struct EnumerableMap.UintToAddressMap",
        "members": [
          {
            "astId": 2771,
            "contract": "contracts/BrightIDStream.sol:BrightIDStream",
            "label": "_inner",
            "offset": 0,
            "slot": "0",
            "type": "t_struct(Map)2454_storage"
          }
        ],
        "numberOfBytes": "64"
      },
      "t_uint256": {
        "encoding": "inplace",
        "label": "uint256",
        "numberOfBytes": "32"
      }
    }
  }
}